:100000000C942A000C943C000C943C000C943C0092
:100010000C943C000C943C000C943C000C943C0070
:100020000C943C000C943C000C943C000C943C0060
:100030000C943C000C943C000C943C000C943C0050
:100040000C943C000C943C000C943C000C943C0040
:100050000C943C0011241FBECFE5D4E0DEBFCDBF21
:1000600020E0A0E6B0E001C01D92A836B207E1F79B
:100070000E943E000C9489030C94000080E00E94D2
:10008000B20181E00E94B20182E00E94B20183E0ED
:100090000E94B20180E00E94730181E00E9473011E
:1000A00082E00E94730180E00E944A0181E00E9488
:1000B0004A0182E00E944A0183E00E944A0184E0F2
:1000C0000E944A018AE00E947001C82F8BE00E94C2
:1000D0007001D82F8CE00E947001182F8DE00E94D3
:1000E0007001082F8EE00E947001C13081F480E021
:1000F0000E94CE0181E090E00E949D0180E090E0AE
:100100000E949D0182E090E00E949D0179C0D13063
:1001100081F481E00E94CE0181E090E00E949D0187
:1001200080E090E00E949D0182E090E00E949D01AD
:1001300067C0113009F58CED8093600085E08093F5
:10014000610010926200109263001092640010929D
:100150006500109266001092670082E00E94CE0156
:1001600081E090E00E949D0180E090E00E949D016E
:1001700082E00E94880144C0013009F58CED809333
:10018000600085E08093610010926200109263002D
:100190001092640010926500109266001092670041
:1001A00083E00E94CE0181E090E00E949D0182E008
:1001B00090E00E949D0180E00E94880121C0813072
:1001C000F9F48CED8093600085E0809361001092DB
:1001D0006200109263001092640010926500109209
:1001E0006600109267000E941A0281E00E94880156
:1001F00080E090E00E949D0182E090E00E949D01DD
:100200002091600030916100409162005091630044
:100210006091640070916500809166009091670024
:10022000A0E00E947D0361F481E090E00E949D01C6
:1002300080E090E00E949D0182E090E00E949D019C
:100240002091600030916100409162005091630004
:1002500060916400709165008091660090916700E4
:10026000AFEF0E94710320936000309361004093D0
:100270006200509363006093640070936500809304
:100280006600909367008FE99FE00197F1F700C047
:10029000000018CF8230A9F028F4882341F0813083
:1002A00059F00895833091F08430A9F0089560E00A
:1002B0008AE00E942B02089560E08BE00E942B02EE
:1002C000089560E08CE00E942B02089560E08DE0CC
:1002D0000E942B02089560E08EE00E942B02089598
:1002E0000E9431030895813049F018F0823059F0AE
:1002F000089561E080E00E942B02089561E081E0B2
:100300000E942B02089561E082E00E942B02089572
:10031000813049F018F0823059F0089561E080E0B2
:100320000E94AE02089561E081E00E94AE0208954D
:1003300061E082E00E94AE020895813049F018F039
:10034000823059F0089560E080E00E94AE02089586
:1003500060E081E00E94AE02089560E082E00E94C9
:10036000AE020895813059F028F0823069F0833070
:1003700081F0089561E084E10E942B02089561E01C
:1003800085E10E942B02089561E086E10E942B0224
:10039000089561E087E10E942B0208958130B9F051
:1003A00028F0823029F18330A1F1089561E084E1E1
:1003B0000E94AE0260E085E10E94AE0261E086E14B
:1003C0000E94AE0260E087E10E94AE02089560E004
:1003D00084E10E94AE0261E085E10E94AE0260E02D
:1003E00086E10E94AE0261E087E10E94AE020895BC
:1003F00061E084E10E94AE0260E085E10E94AE020D
:1004000060E086E10E94AE0260E087E10E94AE02F9
:10041000089560E084E10E94AE0260E085E10E9400
:10042000AE0260E086E10E94AE0261E087E10E94D8
:10043000AE02089560E084E10E94AE0260E085E1D2
:100440000E94AE0260E086E10E94AE0260E087E1B9
:100450000E94AE0208959DEC899F912D1124292FB1
:10046000269526952695220F322F330F330F230F13
:10047000821B282F9695969596956623B9F1613043
:1004800009F06BC0913089F028F09230C9F09330B8
:1004900011F108953AB381E090E002C0880F991FEE
:1004A0002A95E2F7832B8ABB089537B381E090E069
:1004B00002C0880F991F2A95E2F7832B87BB089506
:1004C00034B381E090E002C0880F991F2A95E2F7CB
:1004D000832B84BB089531B381E090E002C0880F84
:1004E000991F2A95E2F7832B81BB0895913091F0F3
:1004F00028F09230D9F0933029F108953AB381E091
:1005000090E002C0880F991F2A95E2F78095832317
:100510008ABB089537B381E090E002C0880F991F2D
:100520002A95E2F78095832387BB089534B381E051
:1005300090E002C0880F991F2A95E2F780958323E7
:1005400084BB089531B381E090E002C0880F991F09
:100550002A95E2F78095832381BB08959DEC899FBE
:10056000912D1124292F269526952695220F322F7D
:10057000330F330F230F821B282F96959695969550
:100580006623B9F1613009F06BC0913089F028F031
:100590009230C9F0933011F108953BB381E090E0BF
:1005A00002C0880F991F2A95E2F7832B8BBB089511
:1005B00038B381E090E002C0880F991F2A95E2F7D6
:1005C000832B88BB089535B381E090E002C0880F8B
:1005D000991F2A95E2F7832B85BB089532B381E0FA
:1005E00090E002C0880F991F2A95E2F7832B82BB07
:1005F0000895913091F028F09230D9F0933029F19C
:1006000008953BB381E090E002C0880F991F2A95BE
:10061000E2F7809583238BBB089538B381E090E0A7
:1006200002C0880F991F2A95E2F78095832388BB23
:10063000089535B381E090E002C0880F991F2A9594
:10064000E2F78095832385BB089532B381E090E083
:1006500002C0880F991F2A95E2F78095832382BBF9
:1006600008959DEC899F912D1124292F269526957B
:100670002695220F322F330F330F230F821B282F83
:10068000892F869586958695813079F028F082307D
:10069000A9F08330E1F024C089B390E002C09595C1
:1006A00087952A95E2F78170089586B390E002C09D
:1006B000959587952A95E2F78170089583B390E028
:1006C00002C0959587952A95E2F78170089580B3C9
:1006D00090E002C0959587952A95E2F7817008957C
:1006E00008950024A7FD00942A0F301D401D501DC1
:1006F000601D701D801D901D08950024A7FD0094AD
:100700002A173005400550056005700580059005E5
:060710000895F894FFCFEC
:00000001FF
